:020000040800F2
:100000000080002031BC000895AD000897AD0008C5
:1000100000000000000000000000000000000000E0
:1000200000000000000000000000000099AD000882
:1000300000000000000000009BAD00089DAD00081E
:1000400081BC000881BC000881BC000881BC00089C
:1000500081BC000881BC000881BC000881BC00088C
:1000600081BC0008A5AD0008B5AD0008CDAD000805
:1000700081BC000881BC000881BC000881BC00086C
:1000800081BC0008DDAD000881BC000881BC00080F
:1000900081BC000881BC000881BC000881BC00084C
:1000A000EDAD000881BC000881BC000881BC0008DF
:0C00B00081BC00080DAE000881BC0008F7
:1000BC0010B5064C2378002B07D1054B002B02D032
:1000CC00044800E000BF0123237010BDF80100209C
:1000DC0000000000B0E20008044B10B5002B03D068
:1000EC000349044800E000BF10BDC04600000000FA
:1000FC00FC010020B0E200080023C25C0133002A9E
:10010C00FBD1581E7047000002B4714649084900E3
:10011C00095C49008E4402BC7047C04603B471466A
:10012C00490840004900095E49008E4403BC7047F1
:10013C0003B47146490840004900095A49008E44ED
:10014C0003BC7047002243088B4274D303098B42D3
:10015C005FD3030A8B4244D3030B8B4228D3030C8B
:10016C008B420DD3FF22090212BA030C8B4202D32D
:10017C001212090265D0030B8B4219D300E0090A55
:10018C00C30B8B4201D3CB03C01A5241830B8B425E
:10019C0001D38B03C01A5241430B8B4201D34B0347
:1001AC00C01A5241030B8B4201D30B03C01A5241AC
:1001BC00C30A8B4201D3CB02C01A5241830A8B4231
:1001CC0001D38B02C01A5241430A8B4201D34B021A
:1001DC00C01A5241030A8B4201D30B02C01A52417E
:1001EC00CDD2C3098B4201D3CB01C01A5241830932
:1001FC008B4201D38B01C01A524143098B4201D36C
:10020C004B01C01A524103098B4201D30B01C01A96
:10021C005241C3088B4201D3CB00C01A5241830810
:10022C008B4201D38B00C01A524143088B4201D33D
:10023C004B00C01A5241411A00D20146524110469D
:10024C007047FFE701B5002000F0F0F802BDC04692
:10025C000029F7D076E7704703460B437FD4002282
:10026C0043088B4274D303098B425FD3030A8B423E
:10027C0044D3030B8B4228D3030C8B420DD3FF22A8
:10028C00090212BA030C8B4202D31212090265D076
:10029C00030B8B4219D300E0090AC30B8B4201D329
:1002AC00CB03C01A5241830B8B4201D38B03C01A70
:1002BC005241430B8B4201D34B03C01A5241030BE7
:1002CC008B4201D30B03C01A5241C30A8B4201D398
:1002DC00CB02C01A5241830A8B4201D38B02C01A43
:1002EC005241430A8B4201D34B02C01A5241030ABA
:1002FC008B4201D30B02C01A5241CDD2C3098B429F
:10030C0001D3CB01C01A524183098B4201D38B011B
:10031C00C01A524143098B4201D34B01C01A5241BE
:10032C0003098B4201D30B01C01A5241C3088B4203
:10033C0001D3CB00C01A524183088B4201D38B00EE
:10034C00C01A524143088B4201D34B00C01A524190
:10035C00411A00D201465241104670475DE0CA0F67
:10036C0000D04942031000D34042534000229C4627
:10037C0003098B422DD3030A8B4212D3FC22890131
:10038C0012BA030A8B420CD3890192118B4208D307
:10039C00890192118B4204D389013AD0921100E069
:1003AC008909C3098B4201D3CB01C01A524183097D
:1003BC008B4201D38B01C01A524143098B4201D3AA
:1003CC004B01C01A524103098B4201D30B01C01AD5
:1003DC005241C3088B4201D3CB00C01A524183084F
:1003EC008B4201D38B00C01A5241D9D243088B42A5
:1003FC0001D34B00C01A5241411A00D20146634648
:10040C0052415B10104601D34042002B00D54942AB
:10041C00704763465B1000D3404201B5002000F0EA
:10042C0005F802BD0029F8D016E770477047C046A2
:10043C008446101C62468C46191C634600E0C0467C
:10044C001FB501F0C5FC002801D40021C8421FBD16
:10045C0010B501F01FFC4042013010BD10B501F089
:10046C00B7FC002801DB002010BD012010BDC046E8
:10047C0010B501F0ADFC002801DD002010BD0120FD
:10048C0010BDC04610B501F03FFC002801DC002077
:10049C0010BD012010BDC04610B501F035FC002880
:1004AC0001DA002010BD012010BDC0468446081C96
:1004BC006146FFE71FB500F091FB002801D4002135
:1004CC00C8421FBD10B500F023FB4042013010BDE7
:1004DC0010B500F083FB002801DB002010BD0120CB
:1004EC0010BDC04610B500F079FB002801DD0020DE
:1004FC0010BD012010BDC04610B500F02FFB002828
:10050C0001DC002010BD012010BDC04610B500F06C
:10051C0025FB002801DA002010BD012010BDC046CB
:10052C0070B500220C4B04000D00FFF7B5FF00283E
:10053C0004D12000290002F063FA70BD064B0022A2
:10054C002000290001F026FF02F05AFA80231B0636
:10055C009C466044F1E7C0460000E041F0B5C64659
:10056C004E024702760A7B0A4400C50FF70048008A
:10057C00984600B5240E2A00DB00000EC90FBC46BD
:10058C008D4267D0221A002A00DCA5E000283AD15F
:10059C00002F00D193E0511E002900D0BCE00124B3
:1005AC00DB1B5A0146D59B019E09300002F07AFBF9
:1005BC0005388640844200DD9DE0041B320020207B
:1005CC000134E240041BA64033005E1EB3410024FC
:1005DC0013435A0704D00F221A40042A00D00433C4
:1005EC005A0129D50134FF2C00D181E02A009B014E
:1005FC005B0AE4B25B02E405580AD20720431043BD
:10060C0004BC9046F0BDFF2CE3D080213800C90417
:10061C00084384461B2A00DD82E020206146D1403D
:10062C00821A604690400200501E82410A439B1A77
:10063C005A01B8D45A07CED1DE082A00FF2C3AD181
:10064C00002E00D1AEE08023DB0333435B025B0A58
:10065C00FF24CFE7211A002952DD002831D0FF2CCE
:10066C00B7D080203E00C0040643B4461B2900DDF1
:10067C00AAE020266046C840711A66468E403100BA
:10068C004E1EB14101435B185901D3D50134FF2CE7
:10069C0000D187E0012278491A405B080B401343D4
:1006AC0097E7002C00D0A7E0002B00D0B6E03B1E53
:1006BC0062D10026002273025B0AE4B29AE71400AE
:1006CC0087E7002F4DD0481E002857D163440124E2
:1006DC005A01AFD50224DDE7002A24D1621CD2B224
:1006EC00012ADEDDDE1B720135D5FE1A0D005CE73A
:1006FC002A0000237EE73300604A241A134068E77F
:10070C00002963D1611CC8B201284EDDFF2949D0F4
:10071C0063445B080C005CE7FF2A41D00A0079E7D0
:10072C0001229B1A84E7002C1DD0FF2822D08024A4
:10073C00E404524223431B2A00DD8AE01C002025DE
:10074C00D440AA1A93405A1E934123436246040094
:10075C00D31A0D0025E7002E00D026E70022002436
:10076C00A9E70C0035E7002B4DD0D243002AEDD081
:10077C00FF28E0D16346FF240D002AE7FF290FD0A4
:10078C00010073E7002B61D0FF24002F00D120E77C
:10079C0080224146D203114202D0164200D13B00C6
:1007AC00FF2416E7FF24002324E7002CEAD1002BBA
:1007BC0058D0002F00D10CE763445A0100D439E71C
:1007CC002E4A0C00134004E701215CE7002C1ED1DB
:1007DC00002B40D0C94300290BD0FF2836D01B2951
:1007EC0047DC1C002026CC40711A8B40591E8B41D3
:1007FC0023436344040047E7002B18D13B1E2DD044
:10080C000D00FF24E5E63B0004000D00E1E6FF28A7
:10081C001CD08024E40449422343E0E7002F00D19C
:10082C00D7E6DE1B72011FD5FB1A0D00D1E6FF24A3
:10083C00002F00D1CDE680224046D2031042AFD02B
:10084C001642ADD13B000D00FF24C2E66346FF24E7
:10085C00BFE601237AE73B000400BAE680260022BB
:10086C00F603F0E63B00B4E6331E00D0E2E60022CD
:10087C0021E70123BDE7C046FFFFFF7DFFFFFFFB24
:10088C00F0B557464E46DE464546E0B544024300B9
:10089C00C60F83B00F1C640A1B0EB24653D0FF2B3D
:1008AC0027D08022E400D20414437F225242904687
:1008BC009844002399469B467D027800FB0F6D0AF5
:1008CC00000E009324D0FF2846D080230021ED0099
:1008DC00DB041D437F384746381A4F460F43BF0091
:1008EC00B9463300009A874F53404A46BA58019391
:1008FC009746002C4ED108239946F7339846FD3B7A
:10090C009B467D027800FB0F6D0A000E0093DAD136
:10091C00002D26D1002001213300009A7A4F53403C
:10092C004246101A4A460A439200BA581D0097468E
:10093C00009B2C009A468B465B46022B31D15346CA
:10094C00FF21002438E0002C17D104239946002302
:10095C00984601339B46AFE7FF20002D0BD10221B7
:10096C00DAE7280002F09EF9431F9D4076235B4294
:10097C00181A0021AFE70321ADE7200002F092F92D
:10098C00431F9C4076235B421B1A984600239946D2
:10099C009B4691E70C239946F3339846FC3B9B46C8
:1009AC008AE7032B00D1A5E05546012B00D081E04E
:1009BC000123002100242B406402C905600ADB07D7
:1009CC000843184303B03CBC90469946A246AB463C
:1009DC00F0BD80240023E403FF21EDE7FF21002478
:1009EC00EAE70123591A1B2966DD019A13400021FD
:1009FC000024E1E78023DB031C4238D01D4251D098
:100A0C001C436402640A3300FF21D5E763016C01C7
:100A1C00A3423BD21B260021013801251F004900AF
:100A2C005B00002F01DB9C4201D81B1B2943013EBC
:100A3C00002EF3D11C00631E9C410C4301007F313E
:100A4C000029CEDD630704D00F232340042B00D0F4
:100A5C000434230103D501002C4B80311C40FE29AA
:100A6C000DDD0123019AFF2113400024A4E780230C
:100A7C00DB031C436402640A3300FF219CE701235F
:100A8C00019AA401640AC9B2134095E71B1B1A26EC
:100A9C000121C2E7009B8B469A4600244CE7630277
:100AAC00E5D500258024E4032C436402640A009BF2
:100ABC00FF2181E70195C1E723002020CB40411A9B
:100ACC008C40611E8C411C43630704D00F232340D0
:100ADC00042B00D00434630105D50123019A0121B4
:100AEC001340002468E70123019AA401640A13400F
:100AFC00002161E78023DB031C436402640A534634
:100B0C00FF2159E7E8E2000828E30008FFFFFFF7A0
:100B1C0070B5420045024E024C00C30F6D0A120E16
:100B2C00760A240EC90F0120FF2A06D0FF2C03D011
:100B3C00A24201D1B54206D070BD002DFCD1FF2CD4
:100B4C00FAD1002EF8D18B4206D00120002AF3D125
:100B5C002800451EA841EFE70020EDE7F0B5420064
:100B6C0045024C02C30F48006D0A120E640A000EB7
:100B7C00C90FFF2A1ED0FF2821D0002A0AD16E42AD
:100B8C006E41F6B200280FD1002C0DD10020002DA3
:100B9C0009D005E0002801D1002C01D08B4211D0E6
:100BAC00012158420843F0BD002EF7D00120013935
:100BBC000843F8E7002DDED002204042F3E7002C7A
:100BCC00DBD0F9E78242EBDC04DBA542E8D800205D
:100BDC00A542E8D20121581E0843E4E7F0B54200D3
:100BEC004D024C004602760A120EC30F6D0A240EFB
:100BFC00C90FFF2A16D0FF2C18D0002A0AD1704238
:100C0C007041C0B2002C15D0002805D0012001394C
:100C1C000843F0BD002C13D0994214D001205B4244
:100C2C001843F6E70220002EF3D1E4E70220002D52
:100C3C00EFD1E2E7002DE7D10020002EE9D0EDE75F
:100C4C00002DE9D1EAE7A24206DCDFDBAE4203D895
:100C5C000020AE42DAD3DCE7012049420843D8E752
:100C6C00F8B557464E464546DE46E0B547024600C7
:100C7C0088467F0A360EC40F002E47D0FF2E24D094
:100C8C00FB008027FF041F43002399469A467F3EB2
:100C9C0043465D025800DB0F6D0A000E984643D0A8
:100CAC00FF283BD0EB0080250022ED041D437F384C
:100CBC003618731C41469B464B46614013430F2B21
:100CCC0064D875489B00C3589F46002F42D1082317
:100CDC009946063BFF269A46DAE74146022A28D077
:100CEC00032A00D1CEE0012A00D0ACE01140002054
:100CFC000022CCB24002D205400AE4071043204344
:100D0C003CBC90469946A246AB46F8BD002F15D187
:100D1C0004239946033B00269A46B9E7FF2002229A
:100D2C00002DC5D00322C3E7002D19D100200122CC
:100D3C00BEE70124FF220C400020DBE7380001F065
:100D4C00B1FF7626431F9F4000237642361A994600
:100D5C009A469DE70C239946093BFF269A4697E74E
:100D6C00280001F09FFF431F9D4076235B42181A19
:100D7C0000229DE780200024C003FF22BAE73D003B
:100D8C005246ABE73D0021005246A7E73B0C9C4680
:100D9C002A04120C2B0C1400604665463F043F0CD1
:100DAC007C4342435D437B43270C9B18FF18BA429C
:100DBC0003D980235B029C46654424043A04240C2A
:100DCC00121993015C1EA3413F0C920E7D191A431C
:100DDC00AD0115432B0104D501235E466A081D4065
:100DEC00154332007F32002A25DD6B0704D00F2318
:100DFC002B40042B00D004352B0103D53200274B9C
:100E0C0080321D40FE2A94DC0124A801400AD2B293
:100E1C000C406FE78020C003074207D0054205D184
:100E2C0028434002400A4446FF2263E7384340020D
:100E3C00400AFF225EE70124A31A1B2B05DD0C40A0
:100E4C000022002056E75E46CBE72A002020DA403D
:100E5C00C31A9D402B005D1EAB4113435A0704D0AF
:100E6C000F221A40042A00D004335A0104D501245D
:100E7C0001220C4000203DE701249B01580A0C4044
:100E8C00002237E780200124C00328434002400A97
:100E9C000C40FF222EE7C04668E30008FFFFFFF777
:100EAC0041024300C20F490A1B0E00207E2B0DDDB0
:100EBC009D2B0CDC802000040143952B0ADC962032
:100ECC00C31AD9404842002A00D108007047034B8E
:100EDC00D018FBE7963B9940F4E7C046FFFFFF7F35
:100EEC0070B5002830D0C317C4185C40C50F200063
:100EFC0001F0D8FE9E231B1A962B0DDC9622D21ADB
:100F0C0094402A006402640ADBB26402DB05600AC6
:100F1C00D2071843104370BD992B19DC9922D21AB1
:100F2C00002A29DD94402200144C1440510704D0AF
:100F3C000F210A40042A00D00434620113D4A40106
:100F4C00640ADBB22A00E0E7002200230024DCE77D
:100F5C0005222100121AD140B922D21A9440621EE5
:100F6C0094410C43DAE7054B2A001C409F23A40153
:100F7C001B1A640ADBB2C8E72200D5E7FFFFFFFBB0
:100F8C0010B5041E27D001F08DFE9E231B1A962B44
:100F9C000ADC9622D21A94406402640ADBB2640220
:100FAC00DB05600A184310BD992B17DC9922D21A65
:100FBC00002A27DD94402200134C1440510704D022
:100FCC000F210A40042A00D00434620112D4A40177
:100FDC00640ADBB2E3E700230024E0E7B922210036
:100FEC00D21A91400A00511E8A410521091ACC409F
:100FFC001443DBE7044B1C409F23A4011B1A640A17
:10100C00DBB2CCE72200D7E7FFFFFFFBF8B5454684
:10101C00DE4657464E460C03E0B54E00C90F8846D7
:10102C000D00610A440F0C43C70019035800DB0F75
:10103C009B464B0A510F0B43760D400D1900D20005
:10104C00D84500D1AEE0351A002D00DCF6E00028C2
:10105C000FD1134300D1DBE06B1E002B00D037E126
:10106C00BA1A9742BF41641A7F42E41B012617004B
:10107C0024E0C64B9E424DD080231B041943382DCF
:10108C0000DD07E11F2D00DD38E12020431B9A46CF
:10109C000B0050468340994613004846EB401843DA
:1010AC00030050468240501E8241E9401A43BA1A4E
:1010BC00611A9742A441170064420C1B230262D5AB
:1010CC006402650A002D00D1DFE0280001F0EAFD82
:1010DC000300083B1F2B00DDD2E020223C00D21A7B
:1010EC009D40D4409F4025439E4200DDC4E09E1BA2
:1010FC00731C1F2B00DDF1E0202238002900D21ACE
:10110C00D840914097402C000143781E8741DC4029
:10111C0000260F437B0709D00F233B40042B05D03F
:10112C003B1DBB42BF417F42E4191F0023022CD55B
:10113C00964B01369E4200D19AE04546944BFF08EF
:10114C001C406007760564020743240B760D0021D2
:10115C002403230B0C0D8F4A24051C431440330528
:10116C0023435B00ED075B082B43380019003CBCA4
:10117C0090469946A246AB46F8BD6446044300D15E
:10118C0011E2040067467B07C6D145466007FF089D
:10119C000743E4087D4B9E4230D024037605240B94
:1011AC00760DD4E7331A9A46002B78DD002831D01F
:1011BC0076488642AED08020000401435346382B3B
:1011CC0000DCE9E00A43511E8A410021D219BA42DF
:1011DC00BF4109197C4217000C192302D3D56B4B64
:1011EC0001369E4200D13AE10120694B1C407B083C
:1011FC0007401F43E007074364088BE723003B438A
:10120C0000D1CBE18022120314432403240B9EE76C
:10121C002E007FE70800104300D1B4E0581E0028D0
:10122C0000D0DEE0BA18BA429B4164185B42E41865
:10123C00170001262302A6D50226D5E7002D6ED174
:10124C00701C4005400D012800DCF9E0B81A8446FA
:10125C0087428041E51A40422D1A280200D489E0C9
:10126C00D71BBA4292411C1B5242A51AD84629E7F9
:10127C004546002400276AE7454CF61A2C4049E7FE
:10128C003D002838854000272EE7380001F00AFD84
:10129C0020301DE70A43511E8A41002107E7002B2D
:1012AC0000D0F3E0701C43055B0D012B00DCADE0BE
:1012BC00364B984200D1D1E0BA18BA42BF416418FB
:1012CC007F42E419E707520817436408060021E738
:1012DC002E48854200D193E01D00D0E629001F3E28
:1012EC00F140202B00D18DE04022D31A9D402F439A
:1012FC007D1EAF4100240F43002644E72B0008005D
:10130C00203BD8400300202D00D17DE04020451B20
:10131C00A9400A43511E8A4100211A43C7E6002EF8
:10132C0050D01A4EB04257D080266B4299463604A4
:10133C0034434B46382B00DDD6E01F2B00DD35E166
:10134C002026F51A2600AE40B2463E00DE40AC46E2
:10135C00350056462E436546AF407D1EAF41DC40FE
:10136C003743D71BBA4292410C1B5242A41A0600B7
:10137C00D846A3E6644667462C4300D0A2E6002577
:10138C000026002706E71E00C4E6C046FF07000043
:10139C00FFFF7FFFFFFF0F801F2B63DC2020C31A92
:1013AC00080098409C46834653461000D8400300E2
:1013BC005846184363469A40531E9A41534602437B
:1013CC00D94003E726003E4306D0EB439946002B59
:1013DC00C7D0944EB042ACD10C0017000600D846D2
:1013EC0098E6904B9A450BD08246E7E6002800D051
:1013FC009EE01800104300D1E9E01C001700D8460D
:10140C00884E87E6002572E7002182E723003B43E4
:10141C00002E00D0ABE0002B00D1E7E00B00134313
:10142C0000D177E6BA18BA42BF4164187F42E4197A
:10143C00230200D4F2E07C4B17001C40060069E646
:10144C0020003843002ED1D100285BD11C0014435E
:10145C0000D1A8E01C001700D8465BE6060000246B
:10146C00002797E650460B002038C3409946534658
:10147C00202B00D195E0402350461B1A99400A437B
:10148C00511E8A414B4600211A439FE6002E30D153
:10149C0026003E4367D0DB439A46002B1CD0614E9E
:1014AC00B04260D05346382B00DD96E01F2B00DD98
:1014BC009FE02026F31A26009E409C46B3465346D6
:1014CC003E00DE4033005E461E4363469F407B1E5B
:1014DC009F415346DC403743BF18974292416418F2
:1014EC005242A418060078E627437C1EA74100242C
:1014FC0037E74C4EB04236D080265B4236049A46D3
:10150C003443CFE71800104300D103E6B81A8446E1
:10151C006745AD41E01A6D42401B050200D42CE634
:10152C00D71BBA4292411C1B5242A41AD846F1E571
:10153C001800104300D163E7F808670707438020C1
:10154C00E4080003044208D0DD08054205D1D208A6
:10155C00590711430F002C00D8467B0FE4001C43A5
:10156C00FF00304ED6E50C0017000600D2E5002B2C
:10157C0038D00B00134300D142E7F8086707074344
:10158C008020E40800030442E7D0CB080342E4D1F6
:10159C00D208490711430F001C00DEE70027002486
:1015AC00D5E500216BE700250027F3E54E46250025
:1015BC00203EF5404B462E00202B2DD04025ED1A19
:1015CC00AC4027437C1EA74100243743C9E6802446
:1015DC0000252403134E0027DCE527437C1EA7417E
:1015EC00002479E70C0017000E4E93E50C00170051
:1015FC0090E556462300203EF34099465346202B57
:10160C000ED0402356469B1B9C4027437C1EA74173
:10161C004B4600241F435FE70024D2E71700B2E5D6
:10162C000024F2E7FF070000FFFF7FFFF0B55746ED
:10163C004546DE464E46E0B54C000E0387B0834669
:10164C0092461D008046360B640DCF0F002C4FD0F8
:10165C006F4B9C4235D08023420F1B04F600134382
:10166C0033439946C30098466A4B00269C46002398
:10167C00644403932B031B0B9B466B00ED0F5046EE
:10168C005B0D01955ED0624A934253D05A46D1000D
:10169C008022400F120402430A4393465246D10063
:1016AC005C4A9446002263443800684084460290A9
:1016BC00E41A16430F2E00D9B4E0574BB6009B59D1
:1016CC009F460300334399466CD10023984602335E
:1016DC0008260393CEE7CB464146039A0197022A8C
:1016EC0065D1019B4A4C9C460023002298466BE036
:1016FC000300334399464ED0002E00D1BCE130009C
:10170C0001F0D0FA03000B3B1C2B00DDACE11D22D9
:10171C00D31A5A460100DA4008398E40130033437D
:10172C0099465B468B40984600233C4C0026241A75
:10173C0003939FE751465A46114329D10022934601
:10174C000232B1E7594601431ED05B46002B00D153
:10175C009EE1584601F0A6FA03000B3B1C2B00DD62
:10176C008FE102005946083A91408B461D21CB1A55
:10177C005146D9400B0059460B4351469B4691406C
:10178C00264B00221B1A8FE7002301229B468BE776
:10179C005146032288E7002398460133042600248F
:1017AC00039367E70323B14603930C2662E7032AEE
:1017BC0000D15CE2019B012A00D0E4E113409C467D
:1017CC00002300240022984600211203130B0A0D5B
:1017DC0012051A432305124C40462240134362461D
:1017EC005B00D2075B081343190007B03CBC904662
:1017FC009946A246AB46F0BD002380229C461203BC
:10180C009846034CE0E70023014C00229846DBE7A6
:10181C00FF07000001FCFFFFA8E300080DFCFFFF21
:10182C00FFFF0F80D94500D939E100D134E1002305
:10183C0046464D469A46013C5B460A0E1B021A432D
:10184C000B02170C039313041B0C39002800904651
:10185C000193FEF777FC0200019B83465A43280054
:10186C0039009146FEF7F4FC350C09040D43A945EB
:10187C000DD95B464544013BA84500D93AE1A94541
:10188C0000D837E102235B429C464544E3444B4677
:10189C00EB1A390018000493FEF754FC019B050069
:1018AC004343390004989946FEF7D2FC33040904EB
:1018BC001B0C0B43994509D943446A1E984500D922
:1018CC001AE1994500D817E1023D43444A469B1A58
:1018DC005A4612042A4303999346100C0A0C91465B
:1018EC0009045A46090C4E460D001204120C4543CD
:1018FC00059151437243704352190E0CB218954224
:10190C0003D980256D02AC466044150C0904120401
:10191C00090C28185218834200D2CEE000D1C8E03E
:10192C001D1A53469E1AB24592415242AB1A9A4620
:10193C00984500D117E139001800FEF703FC019B14
:10194C0005004343390050460493FEF781FC04988C
:10195C000B04310C1943884209D941446B1E88454C
:10196C0000D907E1884200D804E1023D4144049BC0
:10197C00CB1A180039000493FEF7E4FB019B824656
:10198C004343390004980193FEF762FC01980B0461
:10199C003104090C194388420DD953464144013B8B
:1019AC00884500D9E8E0884200D8E5E002235B4294
:1019BC009C464144E244019B2D04CE1A51462943D6
:1019CC00059D4F462A000B04080C1B0C5A4345433B
:1019DC007B4378435B19170CFB189D4203D9802578
:1019EC006D02AC4660441D0C12041B04120C28182A
:1019FC009B18864200D293E000D18EE0012319435C
:101A0C00A04BE318002B00DC99E04A0700D09EE0C5
:101A1C005A46D20106D55A469B4B1A408023934610
:101A2C00DB00E318994A934268DD0123029A984C33
:101A3C001A400023944698460022C5E680224B4665
:101A4C00120313420AD05B46134206D11A43120307
:101A5C00120BAC4688468E4CB6E64B461A43120324
:101A6C00120BBC468A4CAFE603005A46283B9A4000
:101A7C0000239146984657E6584601F013F920305A
:101A8C0040E603005246283B9A400021934677E6F5
:101A9C0001F008F920305FE6884500D2C7E64B46D6
:101AAC00DE075D0843465B081E434346DB079A4648
:101ABC00C2E60025924500D333E7039E5946B4464F
:101ACC00E244B245AD416D424544EB1801399845AD
:101ADC0007D2984200D97FE000D1BCE01D1A8B469A
:101AEC001FE79845FAD1039D5545F2D943468B46DD
:101AFC001D1A16E79B46CAE61500E7E65A46C908C2
:101B0C0052070A435B0590465C0D5A460123029925
:101B1C0052021940120B8C4656E6002B00D16FE78F
:101B2C0046444A1EB04529D91100864200D065E7CB
:101B3C00039A934200D061E762E7012149420120F8
:101B4C00C21A382A21DD029B03409C4638E60F223C
:101B5C000A40042A00D15BE70A00111D9142924110
:101B6C005242934454E7474BE318002BE5DD012226
:101B7C005242F2E71D00FAE69A461CE7B04239D809
:101B8C006ED011003AE702933AE71F2A3CDC20237F
:101B9C009B1A0C005846994098404B1E99415B4645
:101BAC00D440D340204308431A00430709D00F23E5
:101BBC000340042B05D00100081D88429B415B4269
:101BCC00D21813023AD50123029A01241A40002399
:101BDC00944698460022F7E5022149428C46039D23
:101BEC00E344AC46E244AA45AD416D424544ED1890
:101BFC002D1A96E68A1E03994D008D428941494261
:101C0C004144761803958FE71F204042C31A58466B
:101C1C00D8400300202A28D040205D46821A9540E7
:101C2C0029434A1E91411943072300220B4009D036
:101C3C000F2300220B400800042BBDD101005307D9
:101C4C005202120BC9081943012388460299002439
:101C5C0019408C46B8E55245BED88B46002560E647
:101C6C00039D9D42C6D3110062E70025D8E7802270
:101C7C005B4612031A43019B1203120B9C468846C7
:101C8C00034CA1E5FF030000FFFFFFFEFE07000071
:101C9C00FF070000F0B54F464646D6465C00C0B57F
:101CAC001F03DB0F9A46174B0E034D0084468046EC
:101CBC00360B6D0DC90F91463F0B640D01209D42F3
:101CCC0008D09C4201D0A5420BD01CBC9046994632
:101CDC00A246F0BD63463343F7D1AC42F5D13A434B
:101CEC00F3D10120BE42F0D1C845EED1514507D009
:101CFC00002DEAD163461E433000461EB041E4E796
:101D0C000020E2E7FF070000F0B54546DE465746E7
:101D1C004E46E0B51F033D0B2C4F0E034C00AB465B
:101D2C005D008446360B640DC90F90466D0DDB0FBC
:101D3C00BC422AD0254FBD422DD0002C0FD13043B0
:101D4C000700814678427841C0B2002D17D15F461A
:101D5C003A4314D14B460020002B0AD006E0002D4C
:101D6C0002D15846024301D0994218D04842012171
:101D7C0008433CBC90469946A246AB46F0BD0028B1
:101D8C00F2D00120013B1843F3E737000743D1D0D1
:101D9C0002204042EDE75F461743CED0F8E7AC4255
:101DAC00E4DC03DA481E01210843E2E75E45DDD896
:101DBC0006D000205E45DCD20123481E1843D8E72C
:101DCC00C445D3D80020C445F6D3D2E7FF070000A2
:101DDC00F0B54E464546DE4657465C00E0B51F035F
:101DEC00DB0F99462A4B0E034D00C90F8446360B68
:101DFC006D0D8B4690463F0B640D9D4220D0244BBD
:101E0C009C4222D0002D12D1304343424341DBB2DD
:101E1C00002C1FD0002B0CD04B460120013B034360
:101E2C0018003CBC90469946A246AB46F0BD002C2F
:101E3C0016D0CB4517D05B46594201230B43EFE735
:101E4C00310002230143EBD1D9E7390002231143BE
:101E5C00E6D1D7E73A43DDD100230028E0D0EAE70A
:101E6C003A43E6D1E7E7A542E5DC05DBBE42E2D822
:101E7C0007D00023BE42D3D25946012301390B436C
:101E8C00CEE7C445D7D80023C445F5D3C8E7C04630
:101E9C00FF070000F0B557464546DE464E46E0B516
:101EAC000C0398464E00230B87B0070092469B46C6
:101EBC00760DCD0F002E6BD06D4B9E4235D080240D
:101ECC005B46420F2404DB0014431C43C3009946B9
:101EDC00684BA3469C460023002766440293434666
:101EEC001C035A00DB0F5046240B520D984600D1B0
:101EFC0076E05F4B9A426DD08023410F1B040B435D
:101F0C005C49E4008C461C43C300002062444146FB
:101F1C00B6186940721C0191944607430F2F00D9E3
:101F2C00B0E0554ABF00D25997465B4603439946E9
:101F3C0000D087E000239B46023308270293CEE7AC
:101F4C0042460192022867D0032800D10EE20128F4
:101F5C0000D062E10023002400229946019901403F
:101F6C00CDB2002112030B0D120B1B051343434A78
:101F7C00240513401C436400ED0764082C434846B9
:101F8C00210007B03CBC90469946A246AB46F0BD3A
:101F9C00034399464FD05B46002B00D189E158464C
:101FAC0000F080FE03000B3B1C2B00DD7AE11D22B0
:101FBC00D31A3A0001005C46DA4008398C40130011
:101FCC008F4023439B46B94600232D4E0027361ADB
:101FDC00029384E7534623432AD10024022096E738
:101FEC005346234320D0002C00D157E1200000F0B1
:101FFC0059FE03000B3B1C2B00DD49E11D21CB1AC4
:10200C0051460200D9405346083A944093400C4341
:10201C001B4A121A00207AE70125019B144C1D4023
:10202C000023002299469CE70024002201206EE741
:10203C00534603206BE700239B46013304270026FD
:10204C0002934CE7032381460C27029347E7802237
:10205C000023002512039946054C82E75C464B464B
:10206C0002986FE75C464B46019502986AE7C046BA
:10207C00FF07000001FCFFFFE8E30008FFFF0F80F3
:10208C000DFCFFFF4A464946170C1A0C1B041B0C8F
:10209C0008041900000C41431500884619007D43C3
:1020AC007943039589462900150045434D44029513
:1020BC0045462D0CAA46029D5544A94506D98A468B
:1020CC00802149028946CA4451460391290C049146
:1020DC00414609042D04090C88462900250C2404CA
:1020EC004144240C05912100414388462100794349
:1020FC008A466843414650448146080C48446F4325
:10210C00824503D98021490289464F44010C8946F6
:10211C0039004944029141460F0404993F0C88460A
:10212C000004C01980444146049159460F0C09041F
:10213C00090C884659438A46390051438946414621
:10214C004A435146090C8B467B43D2185A4493425E
:10215C0003D980235B029B46D94451460904090CE0
:10216C008A46414661437C43130C12044B4452444F
:10217C00A1468A463C0041466C434D4351464D4472
:10218C000F0C7D19A94503D9802149028846444486
:10219C00049F0399B84641448B4683458041414294
:1021AC008846514608042F04000C3F1858460299E3
:1021BC0010188946904292414F44BA465242994671
:1021CC009346C244D144CB448F42BF41C24589415E
:1021DC0099459B41934592417F4249422D0C524275
:1021EC000F435B4213437F19FF185B463C19DB0D11
:1021FC00059A64021C43430213435D1EAB415A46CD
:10220C00C00D034352021343E20156D501205A0874
:10221C0003401343E207134364085A486044002800
:10222C004DDD5A0709D00F221A40042A05D01A1D79
:10223C009A429B415B42E4181300E20104D58020D2
:10224C00514AC00014406044504A904200DDE3E61D
:10225C000125DB0862071A436402019B9146220B9D
:10226C004405640D1D407CE6802259461203114240
:10227C0008D0144206D122431203120B454699464C
:10228C00434C6EE65B461A431203120B404C68E655
:10229C0003005446283B9C400023B9E600F002FDA5
:1022AC002030A6E60300283B9F400023BB469946FE
:1022BC008AE600F0F7FC203074E6B446ADE7012561
:1022CC002A1A382A06DD019B00241D400023002217
:1022DC00994646E61F2A21DC20252000AD1A1E0057
:1022EC00AB40A840D6405D1EAB4130431843D440B0
:1022FC00430709D00F230340042B05D00300181DFE
:10230C0098429B415B42E418230221D50125019B95
:10231C0001241D4000230022994622E61F2521009E
:10232C006D42281AC1400800202A1DD05F35AA1A18
:10233C00944023435C1EA341072503431D40002208
:10234C00002D09D00F2200241A401800042AD6D1DF
:10235C00030065076402220BDB082B430125994619
:10236C00019B00241D40FCE50024E2E780220125AE
:10237C001203224301991203120B0D409946044C8F
:10238C00EFE5C046FF030000FFFFFFFEFE07000065
:10239C00FF070000F0B54646D6464F460C03C0B5C5
:1023AC00CD0F4E00610A440F0C43C1005800400D84
:1023BC0084468A460F001903500F490A0143C64848
:1023CC00760DA846DB0FD200844500D1D8E0012061
:1023DC004340AB4200D1A6E06046351A002D00DC2C
:1023EC0005E1002810D10B00134300D1D7E06B1E80
:1023FC00002B00D04BE153469F1ABA458041641A1A
:10240C004042241A01261EE0B34B9E4248D0802342
:10241C001B041943382D00DD19E11F2D00DD4CE1A3
:10242C0020230F005B1B10009A409F40E840531E76
:10243C009A41E940074317435346DF1B611ABA45DB
:10244C00A44164420C1B230200D4C5E06402650A5B
:10245C00002D00D1F6E0280000F024FC0300083B1E
:10246C001F2B00DDE9E020223C00D21A9D40D44015
:10247C009F4025439E4200DDDBE09E1B731C1F2BFF
:10248C0000DD0AE120223800D21A290097402C00E6
:10249C009140D8407A1E9741DC40002601430F43FF
:1024AC007B0709D00F233B40042B05D03B1DBB42BF
:1024BC00BF417F42E4191F00230225D5864B01360C
:1024CC009E4200D1AFE0854B01251C40434662077C
:1024DC00FF08640276051743240B760D1D4000217E
:1024EC002403230B0C0D7E4A24051C431440330596
:1024FC0023435B00ED075B082B43380019001CBC21
:10250C0090469946A246F0BD012543466207FF0856
:10251C001743E4081D40704B9E4236D024037605C9
:10252C00240B760DDBE76346F31A002B00DC94E0FA
:10253C006046002835D068488642B1D080273F04D9
:10254C003943382B00DCFDE00A43170000217A1ECA
:10255C009741574457458041091944420C192302AD
:10256C003AD55D4B01369E4200D14BE101225B4BCB
:10257C001C407B0817401F43E207174364088FE792
:10258C000800104300D024E721E723003B4300D18F
:10259C00B9E18022120314432403240B9FE72E007D
:1025AC007EE70800104300D1CAE0581E844600287C
:1025BC0000D0E7E052445245804164184042241850
:1025CC0017000126230207D50226CFE764462C43C9
:1025DC0000D1B3E12C0067467B0700D062E76307AC
:1025EC00FF081F4301254346E4081D4093E7002DD7
:1025FC0078D1751C6D056D0D012D00DCF2E0504697
:10260C00801A8245BF41651A7F42ED1B8446280221
:10261C0000D48CE05046171ABA4292410C1B55421A
:10262C00651B984614E70125434600241D400027EE
:10263C0055E72A4CF61A2C4032E73D0028388540E5
:10264C00002717E7380000F02DFB203006E70A437F
:10265C00170000217A1E9741EEE6002B00D0E5E032
:10266C00731C9C465B055B0D012B00DC9FE01A4B39
:10267C009C4500D1C5E0524452458041641840420B
:10268C002418E707520817436408664608E71248FF
:10269C00854200D185E01D00BCE629001F3EF140BB
:1026AC00202B00D17FE04022D31A9D402F437D1E6A
:1026BC00AF4100240F4300268EE72B000F00203B78
:1026CC00DF40202D71D040235D1BA9400A43511ED1
:1026DC008A4100211743AFE6FF070000FFFF7FFF91
:1026EC00FFFF0F80002E3ED0B34EB44545D0802660
:1026FC0036046D423443382D00DDA8E01F2D00DD7B
:10270C001FE1202627005046761BB740E8400743C0
:10271C005046B040461EB041EC403843171ABA42FE
:10272C0092410C1B5242A41A664698468BE66446AC
:10273C0067462C4300D08BE6002500260027EAE6EE
:10274C001E00ADE61F2B60DC2027F81A0F00844614
:10275C0087401000D840074360468240501E82419B
:10276C00D9401743F5E626005046064305D0ED4305
:10277C00002DD3D0904EB445BDD10C001700664649
:10278C0098468DE68C4883420BD06346D9E6002DE3
:10279C0000D096E00800104300D1E2E00C001700D6
:1027AC009846854E7CE6002580E700218EE72300C5
:1027BC0050460343002E00D0A8E0002B00D1DEE0F1
:1027CC000B00134300D16BE6524452458041641810
:1027DC00404224181700230200D4FDE6774B6646CE
:1027EC001C405DE6250050460543002ECFD1002D40
:1027FC004FD10C00144300D1A0E00C0017009846F8
:10280C004EE666460024002785E61F000800203FA0
:10281C00F8400700202B00D18EE04020C31A9940CD
:10282C000A43511E8A410021174392E6002E14D10F
:10283C0026005046064362D0DB43002B5CD1871840
:10284C009742924164185242A418664687E6504655
:10285C002043441EA041002460E7574EB4454ED09F
:10286C00802636045B423443382B00DD7FE01F2B7F
:10287C0000DD8BE0202627005046F61AB740D840E2
:10288C0007435046B040461EB0410743DC40BF18DA
:10289C00D6E70D00154300D102E65046801A82455A
:1028AC00BF41651A7F42ED1B8446280200D48DE699
:1028BC005046171ABA4292410C1B5242A41A98461F
:1028CC00EEE50D00154300D16BE750466707C008D5
:1028DC0007438020E4080003044207D0CD080542DA
:1028EC0004D12C009846D70849070F437B0FE4000E
:1028FC001C43FF00304ED3E52F4EB445B4D10C0031
:10290C0017006646CCE500270024E8E5002B39D0FB
:10291C000B00134300D144E7C0086707074380202E
:10292C00E40800030442E1D0CB080342DED1D7080F
:10293C0049070F431C00D9E7002171E70025002748
:10294C00E9E52E002700203EF740202D2FD0402611
:10295C00751BAC4050462043441EA0410024384314
:10296C00DCE6802400252403134E0027D3E55046D3
:10297C0020430700781E87410024BF1860E70C0035
:10298C0017008DE50C0017000B4E89E51E00270083
:10299C00203EF740202B0CD04026F31A9C4050468A
:1029AC002043441EA04107430024BF1848E70024DD
:1029BC00D0E70024F3E7C046FF070000FFFF7FFFCE
:1029CC0070B50E4E0D031C0349005B002D0B490D19
:1029DC00240B5B0DB14204D0084900208B4208D077
:1029EC0070BD05430120002DFAD1044900208B4213
:1029FC00F6D114432000441EA041F1E7FF0700006C
:102A0C0030B5134D0A034B00120B5B0DC90F00249C
:102A1C00AB4210DD0F4CA3420FDC80240E4D64033F
:102A2C002243ED1A1F2D0BDD0C48C31ADA40544219
:102A3C00002900D11400200030BD094BCC18FAE756
:102A4C00084CE840A44663449A400243EFE7C04672
:102A5C00FE0300001D0400003304000013040000FA
:102A6C00FFFFFF7FEDFBFFFF70B5002830D0C317D1
:102A7C00C4185C40C50F200000F014F9174B184A1D
:102A8C001B1AD21A1F2A18DD164AD21A9440002299
:102A9C0024035B05240B5B0D0021100024030A0D9D
:102AAC00240B12052243104C1B05224013435B00E0
:102ABC00ED075B082B43190070BD210091400A0003
:102ACC000B21081AC4405B052403240B5B0DE3E7C0
:102ADC000025002300240022DEE7C0461E0400006F
:102AEC003304000013040000FFFF0F804100090EA7
:102AFC004B1C70B5DBB24602750AC40F012B14DDFA
:102B0C00E0239B006D07360BCB1800210A0D280023
:102B1C0012051C4D32435B052A405B0813435B00D6
:102B2C00E4075B082343190070BD002914D1002D64
:102B3C001ED0280000F0B6F80A281CDC0B232A0053
:102B4C001B1ADA40030015339D400F4B12031B1A5E
:102B5C005B05160B5B0DD8E7002D06D0320B8026DB
:102B6C0036036D071643094BCFE7084B0026CCE71D
:102B7C0000230026C9E703002A000B3B9A400025DE
:102B8C00E3E7C046FFFF0F8089030000FF0700004A
:102B9C00F0B54C00640D0B03621C450F5B0A52052B
:102BAC002B43C90FC500520D012A28DD3A4AA6183D
:102BBC00FE2E1BDC002E3EDD80010200501E8241E9
:102BCC006D0F2A43DB0013435A0704D00F221A401F
:102BDC00042A00D004338022D2041A405AD0013681
:102BEC00FF2E03D09B015B0AF4B201E0FF2400230B
:102BFC005802E405400AC90720430843F0BD002CE5
:102C0C0007D01D43F2D08020DB0080040343FF2655
:102C1C00DAE72B4303D00523DB08FF2C03D05B0240
:102C2C005B0AE4B2E4E7002B32D08020C0030343FC
:102C3C005B025B0ADCE73200173214DB80221E27B2
:102C4C0012041343BF1B1F2F0FDC144A9446644419
:102C5C002A00A5402E00A340751EAE41FA40334316
:102C6C0013430026B0E70024D5E702225242961BFC
:102C7C001A00F240202F09D0094884466444A3402E
:102C8C002B435D1EAB41002613439DE70023F7E762
:102C9C000023ADE73400BFE780FCFFFF82FCFFFFA1
:102CAC00A2FCFFFF1C2101231B04984201D3000C42
:102CBC0010391B0A984201D3000A08391B099842A3
:102CCC0001D30009043902A2105C40187047C046B9
:102CDC0004030202010101010000000000000000D9
:102CEC0070B50500FA200D4B80001978FDF72AFA13
:102CFC000B4B01001868FDF725FA00F085F804006D
:102D0C000120002C09D1032D07D8023822002900FC
:102D1C0000F03EF82000034B1D6070BD0000002049
:102D2C001C000020040000201023064A10B5116876
:102D3C0000200B431360FFF7D3FF08F00DF80020C1
:102D4C0010BDC04600200240034A044B11681B789A
:102D5C005B1813607047C0469C03002000000020E5
:102D6C00014B18687047C0469C03002070B50400E6
:102D7C00FFF7F6FF0500631C02D0044B1B78E41828
:102D8C00FFF7EEFF401B8442FAD870BD0000002014
:102D9C0070B58901002812DB8308134A03249B00B9
:102DAC009B18FF222040A0401400C02584401140F5
:102DBC008140AD005E59A6433143595170BD032487
:102DCC000F23C0B203402040A040FC34250021401A
:102DDC0085408140083B054A9B089B009B18DA699B
:102DEC00AA431143D961E9E700E100E000ED00E0FE
:102DFC00002805DB1F2318401E3B8340014A13604B
:102E0C007047C04600E100E0094A431E012093428E
:102E1C000DD8C021074A08485360036A09061B02F3
:102E2C001B0A0B430362002007239060136070475A
:102E3C00FFFFFF0010E000E000ED00E010B50C4BD0
:102E4C0004000068984209D80A4B1421C018FDF7F9
:102E5C0079F9094B80002064E36310BD074B142102
:102E6C00C018FDF76FF980002064054BF4E7C046ED
:102E7C0007040240F8FFFDBF00000240F8FBFDBF55
:102E8C000004024070B504000120002C1ED0022367
:102E9C002268A51CEB7711680D4BA068194063687C
:102EAC000343E06803432069034360690343A0695B
:102EBC000343E06903430B4320001360FFF7BEFF9D
:102ECC0000200123A063E418EB77E07770BDC046C7
:102EDC000FC0FFFFF0B5461CF57F0224012D26D054
:102EEC000125F5770519AC46ED7F0027EDB2012DD4
:102EFC0029D16646F477046887632668076CAE436D
:102F0C00BD402660C66B7560636043680568102B16
:102F1C000FD1A260E160C36A2268002B0CD00E2393
:102F2C0013432360012300242A6813432B602000E1
:102F3C00F0BDA160E260EEE70A2313430422236094
:102F4C0023689343EDE7F777F1E770B5841CE37FD3
:102F5C00022B04D004238363033B180070BD0E21A5
:102F6C000368056C1A688A431A6001221968914338
:102F7C0019601100A940C36B5960E27700248318D3
:102F8C00426BDC771300A242E7D090472300E4E7C2
:102F9C00F8B504273E00016CC26B8E4015680368BF
:102FAC001C682E420DD03C420BD01968890602D405
:102FBC001968B9431960C36A5660002B19D0984739
:102FCC0017E002273E008E402E4213D03C4211D017
:102FDC001968890606D40A241968A14319600121CD
:102FEC00C319D97756600022431CDA77836A93425F
:102FFC00E5D1F8BD082637008F403D42F9D0344268
:10300C00F7D00E251C68AC431C6001231C008C40BF
:10301C005460821C8363D3770022C318DA77036B66
:10302C00E5E70000F0B5564A0B688218541EA24121
:10303C0089B00393002304320592039ADA4001D13C
:10304C0009B0F0BD01229A4094466446039A22408E
:10305C00029200D192E04A6801921022019E96439E
:10306C00022E0DD107240F271C40A400A740DA081C
:10307C0092008218156ABD430F69A7403D43156243
:10308C00032214005D00AC40E4430768013E274076
:10309C000497019F3A40AA40049F3A430260012ED4
:1030AC000ED8CA688668AA402640324382606246BF
:1030BC0046689643019AD206D20F9A403243426038
:1030CC00C26814408A68AA401443019AC460D200B2
:1030DC0054D501262B4A1D0094693443946192699E
:1030EC009C0832400792079A274AA400A418A268A9
:1030FC00944603221540AD000C32AA406746974314
:10310C009022D2059446002260450DD01F4A944669
:10311C003200604508D01E4E9218B04204D01D4EAD
:10312C000132B04200D0059AAA403A43A2601A4A32
:10313C00029C1668029D019FE4433543FF0301D4B2
:10314C003500254015605668029D019F3543BF032D
:10315C0001D43500254055609668029D019F35438A
:10316C00FF0201D4350025409560D568029E019F71
:10317C002E43BF0201D425402E00D66001335CE7FC
:10318C0000F0FFB7001002400000014000040048AE
:10319C0000080048000C004800040140002A01D03F
:1031AC00816170478162FCE74369194200D00904D0
:1031BC008161704703689A69920701D500229A626F
:1031CC0001229969114202D199690A439A617047A7
:1031DC0070B5049E89053343890D19438023046817
:1031EC00DB00700D1840044B6568120418438543CE
:1031FC0011432943616070BDFF63FF0310B5436B3E
:10320C00164C0422A34202D0154CA34214D1002325
:10321C00114200D0B83311220A40112A01D17F3259
:10322C00134312221140914201D14E3213430268D2
:10323C0011680B43136010BD0023114200D0B8334A
:10324C00CA0701D5F22213438A0701D5F422EDE710
:10325C00122211409142EAD10E32E7E7793F000881
:10326C008D3E000810B50023CA0708D50300413372
:10327C001A7828231A401A33282A00D0B0338A0728
:10328C0008D502002824413212782240A24216D1DD
:10329C00442213434A0701D5B822134311220A4092
:1032AC00112A01D17F32134312221140914201D1D4
:1032BC004E32134301680A689A430A6010BDF42227
:1032CC00E7E7F8B504000E0017001D0022689369AB
:1032DC0033409B1B59424B41BB4201D0002017E0AD
:1032EC006B1CF4D0FFF73CFD069BC01A854201D342
:1032FC00002DEBD12022636C012013436364230067
:10330C0041331A7022000023423240341370237070
:10331C00F8BD0000F8B503680400986910230E008E
:10332C00170018402025002818D1F8BD721C16D0A3
:10333C00FFF716FDC01B864201D3002E0ED12022B2
:10334C00636C13436364230041331A70220000231F
:10335C0042324034137001202370E6E723689A69E7
:10336C002A42E3D010222000DA61DD61FFF722FF50
:10337C002268064953680B4053600423626C134364
:10338C006364230041331D70E0E7C04600E800FE93
:10339C00F8B504000D001600022723689B693B4218
:1033AC0001D00020F8BD320029002000FFF7B2FF49
:1033BC00002815D16B1CF0D0FFF7D2FC801B854286
:1033CC0001D3002DE9D12022636C134363642300E5
:1033DC0041331A70220000234232403413702370A0
:1033EC000120DFE773B514001E00DAB2154B05009F
:1033FC00009380235B04FFF7EBFE079A06992800E5
:10340C00FFF7C6FF002801D0012076BD2B68012EE6
:10341C000DD1E4B29C62079B002200938021069B95
:10342C002800FFF74EFF431E9841C0B2EDE7220A79
:10343C009A620699079A2800FFF7AAFF0028E3D1A1
:10344C002B68E6E70020008073B5050014001E0011
:10345C00DAB2154B00930023FFF7BAFE079A0699D0
:10346C002800FFF795FF002801D0012076BD2B68BE
:10347C00012E0DD1E4B29C62079B002200934021E7
:10348C00069B2800FFF71DFF431E9841C0B2EDE7D5
:10349C00220A9A620699079A2800FFF779FF0028FA
:1034AC00E3D12B68E6E7C0460020008070B504002D
:1034BC000120002C3FD0250041352B78DBB2002BAE
:1034CC0005D1220040321370200005F0D9F82423D6
:1034DC0001212B702368E0681A68A6688A431A6079
:1034EC0061681A4A0A401A619968194A1140996030
:1034FC00012821D18021090231439960586815496E
:10350C0001435960D96800200A40DA606169226978
:10351C000A43A16909020A43DA60216AE2690A4393
:10352C001A60012219680A431A60202360642B7008
:10353C0020634234207070BD8421090231439960AC
:10354C000228DBD1802109015960D7E7FFFFFFF08A
:10355C00FF7FFFFF00800002F0B5070089B00793E2
:10356C000EAB069204CB05911B8802920493413753
:10357C003B7804000225202B71D1002A02D0049B39
:10358C00002B04D180239B006364012567E0036852
:10359C009E6980231B021E4061D1030040331A78C0
:1035AC00012A5CD001221A70FFF7DAFB21233B7051
:1035BC002300423303934023039A1370029B6664E7
:1035CC0063626B461B8A6385324BE362324B6363E7
:1035DC00638DFF2B15D9FF23238580235B04049374
:1035EC00192301900093069A079B05992000FFF779
:1035FC00F9FE270006004037002807D000233B7057
:10360C00C3E7638D238580239B04E8E7A06B002828
:10361C0028D0224B22688362214BC6620363466327
:10362C00238D28320299FFF755FC051E26D1228DD9
:10363C000090D2B2049B05992000FFF7C9FD638D61
:10364C00228D11219B1A9BB2638520003D70FFF7E0
:10365C00D5FD80232268DB0111680B431360280021
:10366C0009B0F0BD2300202241331A70039B18705F
:10367C008023626C13436364387086E72300202236
:10368C0041331A70039B1E701023626C13436364E6
:10369C003E707AE70000FFFF793F0008A140000868
:1036AC0089400008F0B5060089B007930EAB06926E
:1036BC0004CB05911B8802920493413633780400A5
:1036CC000225202B72D1002A02D0049B002B04D19E
:1036DC0080239B006364012568E0802703683F0218
:1036EC009B691F4062D1030040331A78012A5DD0D8
:1036FC0001221A70FFF734FB22233370230042336C
:10370C0003934023039A1370029B676463626B46B6
:10371C001B8A6385334BE362334B6363638DFF2BEF
:10372C0015D9FF23238580235B040493192301906F
:10373C000093069A079B05992000FFF785FE27004A
:10374C0006004037002807D000233B70C3E7638D89
:10375C00238580239B04E8E7E06B002829D0234BCA
:10376C0021688362224BC66203634663238D243136
:10377C00029AFFF7AFFB051E27D1228D1D4BD2B24B
:10378C0000930599049B2000FFF722FD638D228D89
:10379C0011219B1A9BB2638520003D70FFF72EFD13
:1037AC00802322681B0211680B431360280009B0A8
:1037BC00F0BD2300202241331A70039B1870802324
:1037CC00626C13436364387085E723002022413315
:1037DC001A70039B1E701023626C134363643E705B
:1037EC0079E7C0460000FFFF793F0008F140000870
:1037FC008940000800240080F0B51D00002389B02A
:10380C000793030041330591049202931B78040043
:10381C000220202B56D123689A6980231B02134067
:10382C0050D1210040310A78012A4BD001220A7074
:10383C0024210298039201706364059BE1689B0547
:10384C0022689B0D01291FD133490B435360FFF7AD
:10385C0087FA060022680399936992695B09120939
:10386C000B400A40134312D0102723689A69009624
:10387C003A402B00002A27D120212000FFF721FD00
:10388C00002817D001201DE0A0218901DDE76B1C69
:10389C00E0D0FFF765FA801B854201D3002DD9D10A
:1038AC002023029A40341370626813436360002330
:1038BC002370E7E720232268D36122004034413291
:1038CC001370207009B0F0BD002220212000FFF7FA
:1038DC00F8FC021ED6D123680498DF612027DF6133
:1038EC00079981420ED180215868C9010143596062
:1038FC00200000962B003900FFF7E3FC0028C1D113
:10390C002368DF61079B049A01330793079B9A4254
:10391C0000D992E7C4E7C04600200002036810B546
:10392C0099691A68436B002B00D0984710BD7047FB
:10393C007047030070B500252022060042331D702D
:10394C00013B1978040040361A7021290AD1112341
:10395C00456303632039FFF785FC35702000FFF7C2
:10396C00E6FF70BD1223456303630221FFF77AFC67
:10397C0035702000FFF7DCFFF3E77047704703005A
:10398C0070B5002542331D70013B1A780400292ABA
:10399C000DD1013A1A70212301210363FFF762FC58
:1039AC00230040331D702000FFF7E7FF70BD1A782D
:1039BC002A2AFBD1023A1A70222302210363FFF751
:1039CC0051FC230040331D702000FFF7D7FFEDE7BB
:1039DC0070470300F7B541331A78282304001A40C6
:1039EC000368282A37D1FE279D699E699A68D96891
:1039FC00ED030191C168360CED0F3E40022921D137
:103A0C009205920DD1094E4006210E4010D1816CC9
:103A1C0001318164816C022909D106318664D96136
:103A2C00030040331E7029002000FFF7D1FFF7BDC3
:103A3C000421FFF717FC2300002240331A70019A6F
:103A4C003A40F0E70421FFF70DFC2300002240333D
:103A5C001A703200E7E70822DA6100234034237041
:103A6C00E5E77047184B10B5C362002302000363EF
:103A7C000400202041321070537004226363114201
:103A8C0012D02368616A5B6A0B70636A01336362EC
:103A9C00238D002B08D0013B2385638D013B9BB20A
:103AAC006385636C1A43626407212000FFF7DAFB1D
:103ABC00102223682000DA612300002240331A70A0
:103ACC00FFF7CFFF10BDC0460000FFFF704700009E
:103ADC0070B5020005000026423241352B78167075
:103AEC002F4A283BC2624685426C04001143416454
:103AFC00022B22D80321FFF7B5FB28232B70294B6F
:103B0C002663802263632368D201196811401A6806
:103B1C001ED02549A06B0A401A6000280CD0234BFC
:103B2C0000224363230040331A70FFF70EFA00287B
:103B3C0002D0A06B436B984770BD0721FFF792FB37
:103B4C002B78602B01D020232B7000232363D8E724
:103B5C0080200002024011D01A6815480240E06B28
:103B6C001A600028E8D0114B4363230040331970CE
:103B7C00FFF7EBF90028DFD0E06BDBE723002978B7
:103B8C004033602906D14039297020001A70FFF7A4
:103B9C009DFFD1E71A70200004F068FECCE7C04608
:103BAC000000FFFFB53C0008FFBFFFFF9941000874
:103BBC00FF7FFFFF2022F8B50400802503680F006B
:103BCC001E680721DA61FFF74DFB23682D025A6846
:103BDC0033492A435A605A6820000A405A60FFF75A
:103BEC00E9FA730438D5A36B002B03D01B685B6810
:103BFC009BB2638504231F4210D09F432368626AE3
:103C0C005B6A1370636A01336362238D002B05D0EA
:103C1C00013B2385638D013B9BB26385638D002B38
:103C2C0003D00423626C1343636422000023250039
:103C3C00423223631370666C636341359E420FD02E
:103C4C00616C2000FFF744FF2B78282B03D139003F
:103C5C002000FFF707FFF8BD2E42CBD0E36BC3E784
:103C6C002700E36A0F4A403793420BD02000FFF73E
:103C7C0086FE0C4B2000E36220232B703E70FFF776
:103C8C00F0FEE8E720232A7820002B703E70222AD1
:103C9C0002D1FFF773FEDEE7FFF76FFEDBE7C046EE
:103CAC0000E800FE0000FFFF0300F7B5403301936E
:103CBC001B780400C66A0D0017000220012B22D0CD
:103CCC000123019A13701F33194204D01F4202D0F2
:103CDC002000FFF76FFF10231D4233D01F4231D05D
:103CEC00628D002A20D1230041331A78282A0BD167
:103CFC0080229204964207D129002000FFF7B2FEE1
:103D0C000020019B1870FEBD102219782368DA611F
:103D1C002929F5D12B498E42F2D02000FFF74AFA1F
:103D2C002000FFF72CFEEBE72268D3610423626CC2
:103D3C0013436364244B1E42E2D1616C2000FFF7F5
:103D4C00C7FEDDE704231D4219D01F4217D0638D37
:103D5C00002B0DD02368626A5B6A1370636A0133AF
:103D6C006362238D013B2385638D013B9BB263858D
:103D7C00638D002BC4D1134B9E42D1D1C0E70823D5
:103D8C001D4205D01F4203D02000FFF722FEB7E7EB
:103D9C0002231D42B4D01F42B2D0638D002B0DD034
:103DAC00636A22681978013391626362638D013B07
:103DBC009BB26385238D013B2385A1E7024B1E42F9
:103DCC00AED09DE70000FFFFFFFFFFFE202203683F
:103DDC0010B5DA615A680400274802405A60002284
:103DEC0022636263254AE2621022114204D0DA6136
:103DFC000423626C134363642000FFF7DBF9032197
:103E0C002000FFF72FFA22004132636C11786029F1
:103E1C0001D0002B04D0616C2000FFF759FE10BDBF
:103E2C001178212912D1013911702200210042325E
:103E3C001078403113700B70402803D1200004F02F
:103E4C0009FDECE72000FFF772FDE8E71178222965
:103E5C00E5D1023911702200210042321078403134
:103E6C0013700B70402803D1200004F0F9FCD6E746
:103E7C002000FFF75DFDD2E700E800FE0000FFFF29
:103E8C000300F7B5403301931B780400C76A0E009A
:103E9C0015000220012B38D00123019A13701F3317
:103EAC00194204D01D4202D02000FFF783FE1023DC
:103EBC001E424DD01D424BD0C0221202154244D09E
:103ECC00E26B131E06D00023290403D513685B682C
:103EDC005A425341A26B002A05D0690403D51268DB
:103EEC005268002A01D0012B20D1230041331A78CB
:103EFC00282A0BD180229204974207D1310020004E
:103F0C00FFF7B0FD0020019B1870FEBD1022197840
:103F1C002368DA612929F5D112498F42F2D02000A9
:103F2C00FFF748F92000FFF72AFDEBE71022236882
:103F3C00DA610423626C134363640B4B1F42E1D1BF
:103F4C00616C2000FFF7C4FDDCE72268D361D9E780
:103F5C0008231E42D6D01D42D4D02000FFF739FDD5
:103F6C00D0E7C0460000FFFFFFFFFFFE37B505009E
:103F7C0040352B7804000220012B15D001232B7027
:103F8C000F33194211D01A420FD022682000D3618E
:103F9C00626C0C3B134363641221FFF72FF9200072
:103FAC00FFF708F9002028703EBD4023080644D5D1
:103FBC001A4242D02268116899431160638D002B1C
:103FCC002FD05168638D8905890DFF2B1BD9FF23D9
:103FDC00238580235B040020228D0090D2B2200028
:103FEC00FFF7F6F8638D228D9B1A9BB26385230035
:103FFC0041331A7823681968222A0FD180221202C1
:10400C000A431A60CEE7638DE26A23851A4B9A4203
:10401C0001D0E36ADFE780239B04DCE78022D20136
:10402C00EEE753689B0103D42000FFF782FCB9E74D
:10403C0040212000FFF74CFDB4E7194212D01A4280
:10404C0010D0638D002BF3D123685A689201A9D448
:10405C00E16A094A9142E7D180225968D2010A43A8
:10406C005A609FE7202319429CD01A4200D199E74D
:10407C002000FFF7ABFE95E70000FFFF8023406AAE
:10408C0010B502681B0251680B4353601021FFF7F7
:10409C001FFD10BD10B5446A1149226813680B400E
:1040AC001360638D002B04D112212000FFF7A6F8BA
:1040BC0013E0636A218D5918638D6162FF2B0DD952
:1040CC00FF232385238D2832A06BFEF703FF0028E6
:1040DC00EAD010212000FFF7FBFC10BD638DF0E748
:1040EC00FFBFFFFF10B5446A114A21680B681340EB
:1040FC000B60638D002B04D112212000FFF77EF89A
:10410C0013E0636A228D9A18638D6262FF2B0DD9BE
:10411C00FF232385238D2431E06BFEF7DBFE002883
:10412C00EAD010212000FFF7D3FC10BD638DF0E71F
:10413C00FF7FFFFF70B5802503686D0099691A68D1
:10414C00294206D0140604D50124466C3443446439
:10415C00DD618025ED00294206D0140604D5082423
:10416C00466C34434464DD618024A400214206D0B3
:10417C00120604D50222416C0A434264DC610B2313
:10418C00416C194201D0FFF7A3FC70BD0023406ABB
:10419C0010B5826B5363C26B5363030041331A78BF
:1041AC00602A04D1403A1A70FFF790FC10BD04F05D
:1041BC005DFBFBE7F0B50400413422780300D2B27A
:1041CC000220202A18D11D0040352E78012E13D044
:1041DC001B68223020701E68233886431E601E68C0
:1041EC00064F3E401E601E68314319601968084333
:1041FC001860002022702870F0BDC046FFEFFFFF52
:10420C00F0B5050041352A780300D2B20220202AED
:10421C0017D11C0040342678012E12D01B68223096
:10422C0028701E68233886431E601E68054F0902DD
:10423C003E403143196019680843186000202A7009
:10424C002070F0BDFFF0FFFFF0B5040085B0002832
:10425C0002D1012005B0F0BD0368DB0733D423681D
:10426C009B0700D587E023681B0700D5C8E02368AF
:10427C005B0700D5EBE02368DB061AD56269BC4D01
:10428C000423012A00D057E1696B02260B436B63B0
:10429C006B6B1A436A63FEF763FD07006B6B33426B
:1042AC0000D142E1F8216A6BA3698A43DB00134316
:1042BC006B6323689B0600D566E1626A002A00D016
:1042CC00A3E10020C6E70C21A94D6A680A40042A24
:1042DC000BD06B680B40082B0ED1C0226B685202BE
:1042EC00134080225202934206D12B689B03B6D511
:1042FC006368002BB3D1ACE76368012B13D1802327
:10430C002A685B0213432B60FEF72AFD8026070008
:10431C00B6022B683342A2D1FEF722FDC01B6428E3
:10432C00F7D9032096E7002B15D12B68914A8026EC
:10433C0013402B602B68904AB60213402B60FEF79B
:10434C000FFD07002B68334289D0FEF709FDC01B17
:10435C006428F7D9E5E7052B05D180232A68DB0211
:10436C0013432B60CBE72B68824A13402B602B68DE
:10437C00814A1340C7E70C227D4D6B6813420BD06A
:10438C006B681340082B16D1C0226B685202134085
:10439C008022120293420ED12B689B0703D5E3684F
:1043AC00012B00D055E7F8212A6823698A43DB00EA
:1043BC0013432B6057E7E2680123002A0FD02A68C9
:1043CC00022613432B60FEF7CBFC07002B6833420D
:1043DC00E9D1FEF7C5FCC01B0228F7D9A1E72A6872
:1043EC0002269A432A60FEF7BBFC07002B68334277
:1043FC0000D138E7FEF7B4FCC01B0228F6D990E7D1
:10440C00E26901235A4D002A10D06A6A022613432E
:10441C006B62FEF7A5FC07006B6A334200D026E7FF
:10442C00FEF79EFCC01B0228F6D97AE76A6A0226C0
:10443C009A436A62FEF794FC07006B6A334200D120
:10444C0015E7FEF78DFCC01B0228F6D969E7802220
:10445C000021474D5205EB690091134208D1EB69DD
:10446C001343EB61EB6913400393039B012300930C
:10447C008027424E7F0033683B4206D0A368012B55
:10448C0013D12A6A13432B6230E033683B43336009
:10449C00FEF766FC019033683B42EFD1FEF760FCFF
:1044AC00019BC01A6428F6D93BE70122002B14D1DA
:1044BC002B6A022793432B622B6A033293432B62A2
:1044CC00FEF74EFC06002B6A3B4225D0FEF748FC5B
:1044DC002B4B801B9842F6D923E7052B0BD1296A6D
:1044EC00013B0B432B622B6A1A432A62FEF738FC02
:1044FC00022706000DE02B6A934304222B622B6AE1
:10450C009343C0E7FEF72CFC1D4B801B984200D94F
:10451C0007E72B6A3B42F5D0009B012B00D0AAE6A3
:10452C00EB69184A1340EB61A5E6FEF719FCC01BBA
:10453C00022800D8B2E6F4E6053203D16A6B9A433E
:10454C006A63AFE66A6B0226134301226B636B6BE3
:10455C0093436B63FEF704FC07006B6B334200D193
:10456C00A7E6FEF7FDFBC01B0228F6D9D9E6C0462C
:10457C0000100240FFFFFEFFFFFFFBFF007000403A
:10458C0088130000FFFFFFEF0C21534D6A680A40AF
:10459C008A4209D06B680B40082B0ED1C0226B6885
:1045AC0052021340934208D16B6BDB0300D484E6B8
:1045BC00236A012B00D04CE67FE6236A002B11D036
:1045CC0080266B6B760233436B63FEF7C9FB0700E7
:1045DC006B6B334200D070E6FEF7C2FBC01B0228A7
:1045EC00F6D99EE66B6B3D4A802613406B63FEF753
:1045FC00B7FB070076026B6B334200D15DE6FEF72A
:10460C00AFFBC01B0228F6D98BE60C20324B596845
:10461C001D000140082944D01B6831490B402B6018
:10462C00022A2FD1FEF79CFB80260700B6042B68CC
:10463C00334221D10F22EB6A9343226B1343EB627B
:10464C00A16AE36A6A680B43264980240A40134333
:10465C006B6080232A685B0413432B60FEF780FB9E
:10466C000600A4042B68234200D02AE6FEF778FB50
:10467C00801B0228F6D954E6FEF772FBC01B0228F9
:10468C00D5D94EE6FEF76CFB80240600A4042B68FB
:10469C00234200D115E6FEF763FB801B0228F6D9F6
:1046AC003FE6012A00D1D4E5C0225868A16A520223
:1046BC00DB6A02408A4200D0CBE50F221340226B0A
:1046CC00934200D0C5E5F0239B031840E36AC01A5F
:1046DC00431E9841C0B2BDE500100240FFFFFEFF33
:1046EC00FFFFFFFEFF7FC2FF70B5194C88B0102290
:1046FC002100684607F0F0FA210004AD10221031B9
:10470C00280007F0E9FA0C22124E73681A40082AA6
:10471C0004D00C2A1AD1104808B070BD0F206A467C
:10472C00990C0140545CF26A0240A95CC0228020C2
:10473C00520213404002834201D1084802E09342E6
:10474C00FBD10548FBF7FEFC6043E5E70348E3E7D4
:10475C00C8E2000800100240006CDC0200127A0073
:10476C00F7B505000F00002801D10120FEBD012284
:10477C003B4C236813408B421CD329688B0722D4F3
:10478C00CB072FD4012322681A40974259D32B68A8
:10479C00344C5B075DD4FFF7A7FF6368324A1B06F6
:1047AC001B0FD35CD840314B18600020FEF798FAF1
:1047BC000020DBE7236893430B43236023681340FB
:1047CC009942D2D1D9E7274A4B0704D5E023506848
:1047DC00DB0003435360F02053688343A868034312
:1047EC005360CDE76A681F4E012A1AD133689B03C8
:1047FC00BBD5032173688B4313437360FEF7B0FA88
:10480C0001900C2372681A406B689B009A42B9D0D5
:10481C00FEF7A6FA019BC01A154B9842F1D903205A
:10482C00A4E7022A03D133689B01E2D49DE7032A53
:10483C0003D1736BDB03DCD497E733689B07D8D4C5
:10484C0093E722689A43226022681A4200D08CE7D0
:10485C009DE76368074A1340EA68134363609AE76D
:10486C000020024000100240BAF700081C00002093
:10487C0088130000FFF8FFFF044B054A5B685B05DB
:10488C005B0FD35C034A1068D8407047001002409D
:10489C00CAF700081C000020F0B5036885B00500BD
:1048AC00DB0328D580220021444C5205E36900919A
:1048BC00134208D1E3691343E361E36913400393A3
:1048CC00039B0123009380273D4E7F0033683B42BE
:1048DC0041D0C022236A920013403A4E4DD1236A34
:1048EC001E406B681E43009B2662012B03D1E369BB
:1048FC00354A1340E3612B68DA0706D503202F49AC
:10490C000A6B8243A86802430A639A0706D52B49AF
:10491C002E480A6B0240E86802430A635A0306D524
:10492C0026492B480A6B0240286902430A639A06FF
:10493C0006D5102021490A6B8243686902430A6339
:10494C0000205B0517D540211C4A136B8B43A969CA
:10495C000B4313630FE033683B433360FEF700FAFD
:10496C00019033683B42B4D1FEF7FAF9019BC01AAF
:10497C006428F6D9032005B0F0BD69680A4093425B
:10498C00ADD08023226A206A11005B0203432362AC
:10499C00236A10483140034023622162D3079ED51D
:1049AC00FEF7DEF907000222236A134297D1FEF7C5
:1049BC00D7F9094BC01B9842F5D9DBE70010024030
:1049CC0000700040FFFCFFFFFFFFFFEFFFFFFCFF4D
:1049DC00FFFFF3FFFFFFFEFF8813000001220368B7
:1049EC000720D9681143D96099680140062902D083
:1049FC0019680A431A600020704770477047704767
:104A0C0070470222036810B51969040011420ED0D8
:104A1C00D96811420BD0053A1A619B6904320277AE
:104A2C009B0700D179E0FFF7E9FF002323770422ED
:104A3C0023681969114210D0D96811420DD0093A76
:104A4C001A61073222779A69C0239B0020001A4210
:104A5C0069D0FFF7D3FF0023237708222368196955
:104A6C0011420ED0D96811420BD0113A1A61DB6990
:104A7C000D32227720009B075BD0FFF7BFFF00238E
:104A8C002377102223681969114210D0D96811427A
:104A9C000DD0213A1A6119322277DA69C0239B00B2
:104AAC0020001A424BD0FFF7A9FF002323770122E5
:104ABC0023681969114207D0D968114204D0033A0E
:104ACC001A61200003F0ECFE802223681969114260
:104ADC0008D0D968114205D0023AFF3A1A61200079
:104AEC0000F0D5F8402223681969114207D0D96823
:104AFC00114204D0813A1A612000FFF781FF202275
:104B0C0023681969114207D0D968114204D0413A7F
:104B1C001A61200000F0BAF810BDFFF76EFF2000FC
:104B2C00FFF76DFF81E7FFF768FF2000FFF767FFD6
:104B3C0091E7FFF762FF2000FFF761FF9FE7FFF7A8
:104B4C005CFF2000FFF75BFFAFE70000204A10B5C9
:104B5C000368904206D08024E405A04202D01D4C8C
:104B6C00A0420CD17024A3434C682343904212D032
:104B7C008024E405A0420ED0164CA0420BD0164C5B
:104B8C00A04208D0154CA04205D0154CA04202D032
:104B9C00144CA04203D1144C2340CC6823438024F2
:104BAC00A3434C69234303608B68C3620B68836225
:104BBC00904208D0094B984205D0094B984202D03C
:104BCC00084B984201D10B6903630123436110BD6B
:104BDC00002C014000040040002000400040014037
:104BEC000044014000480140FFFCFFFF70B5040089
:104BFC000120002C14D025003D352B78DBB2002B86
:104C0C0005D122003C321370200006F07BFD0223FC
:104C1C0020682B70211DFFF799FF012300202B70BA
:104C2C0070BD000070B5040002223C3425780300EE
:104C3C001000012D22D01D0070261B6801383D3557
:104C4C0020702A7058689A68B0430E6830435860D8
:104C5C000B48834209D08020C005834205D0094807
:104C6C00834202D00848834204D1802049688243A1
:104C7C000A439A60012300202B70207070BDC0463F
:104C8C00002C014000040040004001407047704778
:104C9C00036807491A680A401A609A682331FF3181
:104CAC008A439A6020238367002303667047C046BB
:104CBC00DFFEFFFFF8B51300426F04000220202A2C
:104CCC0035D10138002932D0002B30D08022A56894
:104CDC005201954204D12269002A01D1014226D108
:104CEC002600703632780220012A20D022000125BD
:104CFC00503235700027E164138053802122A06E5E
:104D0C00E7676267B84213D00E4A476382620E4A65
:104D1C00C2620E4A026322682832FEF7DBF8B84200
:104D2C0006D010232800E367DB1837706367F8BDE3
:104D3C004022002023681A62996892180A43307046
:104D4C009A60F4E70D4E00083D4E0008974E00089F
:104D5C00F8B51300826F05000220202A37D10138E4
:104D6C00002934D0002B32D08022AC6852019442FE
:104D7C0004D12A69002A01D1014228D12E007036B3
:104D8C0032780220012A22D02A00012458323470B1
:104D9C000027696513802222E86EEF67AA67B84284
:104DAC0016D0144A47638262134AC262134A0263E2
:104DBC002A68243294460A006146FEF78BF8B84202
:104DCC0006D010232000EB67DB1837706B67F8BD3B
:104DDC00802200202B685200196830700A431A6038
:104DEC00012299680A439A60402299680A439A60A2
:104DFC00EDE7C046494E00088B4E0008974E000860
:104E0C00826910B5436A202A0DD01A0000211B6854
:104E1C00523211809A6880318A439A604022196814
:104E2C000A431A6010BD180003F02EFDFAE7704714
:104E3C0010B5406AFFF7FBFF10BD0000836910B589
:104E4C00426A202B13D0130000215A3319801368A7
:104E5C00094819680140196099680330FF30814393
:104E6C00996099683F3081439960202393671000C3
:104E7C0003F010FD10BDC046FFFEFFFF704710B5DC
:104E8C00406AFFF7FBFF10BD704710B5446A2368FA
:104E9C00626FA16F986800060BD5212A09D12200F8
:104EAC000020523210801A68C03082431A602022CF
:104EBC0062679B685B0608D5222906D12300002275
:104ECC005A331A802000FFF7E3FE1023E26F200014
:104EDC001343E367FFF7D8FF10BD0000F8B5036874
:104EEC000400DA69504819689E6802420BD12020F0
:104EFC00024200D176E0014200D173E0236E200023
:104F0C00002B65D165E001203500054003D19027C9
:104F1C007F00394266D0024205D0CE0503D5186217
:104F2C00E66F3043E0670220024206D0002D04D029
:104F3C001862E66F00183043E0670420024206D086
:104F4C00002D04D01862E66F02383043E06710077A
:104F5C0008D5880601D4002D04D008201862E56F0E
:104F6C002843E06780200001024206D04D0104D5A1
:104F7C0018622023E06F0343E367E36F002B28D014
:104F8C0020231A4206D0194204D0236E002B01D0E4
:104F9C00200098472368E56F9B6820005B0602D4CD
:104FAC0028231D401AD0FFF773FE402123689A680E
:104FBC000A420FD09A68E06E8A439A60002809D0A2
:104FCC001A4B4363FDF7C1FF002802D0E06E436B20
:104FDC009847F8BD2000FFF757FFFAE7FFF754FF9B
:104FEC00E567F6E780204003024206D0750204D53F
:104FFC001862200000F030FAEBE78020024203D068
:10500C00014201D0636E7AE740200242E1D00142B6
:10501C00DFD01A6882431A602023636700232000C4
:10502C00636603F031FCD4E70F0800003D50000824
:10503C00406A0023020010B55A321380083A1380DC
:10504C00FFF722FF10BD000070B504002569A268AF
:10505C0003682A436569C1692A431868654D0A4388
:10506C00284002431A605A686348256A0240E06887
:10507C0002435A60A26998682A43604D2840024353
:10508C009A605F4A934213D103225E4B1B6B134011
:10509C005D4AD05C80231B02994200D19CE0082819
:1050AC0061D8FBF731F862606760776060607A0006
:1050BC00564A934238D1C0228020524B92021B6B2D
:1050CC0040021340834200D17FE008D8002B00D16E
:1050DC0071E0802301201B02994244D120E0802002
:1050EC00800283425ED09342F3D180231B0299420B
:1050FC0040D163685808464BC0186168FBF722F82A
:10510C0080B20300434A103B93422CD80F23020079
:10511C009A43130000072268400F1843D060002008
:10512C0000232366636670BD3B4A93420CD1C022B8
:10513C008020344B12031B6BC0021340834244D0BB
:10514C00C4D980200003CCE7344A934233D0344A8C
:10515C00934230D0334A93422DD0334A93422AD0D3
:10516C00324A934227D00120DAE7FFF785FB6368C8
:10517C005B0802E0636858082D4BC0186168FAF7A9
:10518C00E1FF80B20300234A103B9342EBD8236823
:10519C00D860C4E7FFF7A8FAE9E7636858088023EA
:1051AC001B02EAE780231B029942F6D16368580878
:1051BC0080235B02A0E780231B029942D5D1FFF725
:1051CC005BFB636840005B0896E780231B029942F7
:1051DC00E0D1FFF789FAF4E70828C4D8FAF79EFF64
:1051EC00EFFFC3FF89FFC3FFF9FFC3FFC3FFC3FF7B
:1051FC00E6FFC046F369FFEFFFCFFFFFFFF4FFFFB1
:10520C00003801400010024028E40008004400402F
:10521C000024F400EFFF000000480040004C004068
:10522C00005000400014014000180140001C0140D7
:10523C0000127A00436A30B5DA0706D50168284CAB
:10524C004A682240846A22434A609A0706D501685C
:10525C00244C4A682240C46A22434A605A0706D545
:10526C000168214C4A682240046B22434A601A07A9
:10527C0006D501681D4C4A682240446B22434A60A3
:10528C00DA0606D501681A4C8A682240846B2243E0
:10529C008A609A0606D50168164C8A682240C46B4F
:1052AC0022438A605A0610D50168134D4A68046C73
:1052BC002A4022434A6080225203944205D14A6814
:1052CC000E4C2240446C22434A601B0606D50268F1
:1052DC000B4953680B40816C0B43536030BDC04687
:1052EC00FFFFFDFFFFFFFEFFFFFFFBFFFF7FFFFF49
:1052FC00FFEFFFFFFFDFFFFFFFFFEFFFFFFF9FFF52
:10530C00FFFFF7FFF7B5802704000E00150001938F
:10531C003F012268D36933409B1B59424B41AB423E
:10532C0001D000201CE0089B0133F3D0FDF718FDE1
:10533C00019B089AC01A2368824201D3002A10D11B
:10534C001A6813490A401A609A68A331FF318A43DC
:10535C009A6020236367A3670023032070342370B3
:10536C00FEBD04211A680A42D3D0DA693A42D0D081
:10537C001F621A6806490A401A609A68A331FF3105
:10538C008A439A6020236367A367E367E4E7C04618
:10539C005FFEFFFF73B500260400C667FDF7E0FC57
:1053AC00236805001B681B0715D423681B685B0763
:1053BC000AD580210E4B00220093C9032B0020003C
:1053CC00FFF7A0FF002811D1202300206367A367FB
:1053DC00703420700BE08021054B32000093890360
:1053EC0003002000FFF78EFF0028DED0032076BDDF
:1053FC00FFFFFF0110B5041E01D1012010BD436F4A
:10540C00002B04D102007032137006F0C5F924236E
:10541C00012122686367136820008B431360FFF738
:10542C0013FE0128E9D0636A002B02D02000FFF79D
:10543C0001FF236807495A6820000A402A215A6054
:10544C009A688A439A60012219680A431A60FFF726
:10545C00A1FFD3E7FFB7FFFF704700000023F0B5B3
:10546C00AA4EAB4DAB4F85B033700133019300970F
:10547C001022D6212800FEF715F9002801D003F0E0
:10548C004DFA3378002BFCD003223B780F241A40C2
:10549C0060236C441343237000239F4AD62113705E
:1054AC0001330193009410222800FEF755F80028D0
:1054BC0000D115E103F032FA974B1B78002BFBD08F
:1054CC000023964F33700133019300975822D62155
:1054DC002800FEF7E7F8002801D003F01FFA337814
:1054EC00002BFCD08E4B1B78692B00D000E13A7856
:1054FC00583B9A43134323700023874AD6211370D9
:10550C0001330193009458222800FEF725F8002857
:10551C0001D003F003FA804B1B78002BFBD0002347
:10552C00804F33700133019300975B22D621280002
:10553C00FEF7B8F8002801D003F0F0F93378002B0F
:10554C00FCD03F223B789343237002F055FD237827
:10555C00714A184300231370013320705B220193AE
:10556C000094D6212800FDF7F7FF002801D003F0A6
:10557C00D5F9694B1B78002BFBD000236A4F337095
:10558C000133019300971722D6212800FEF78AF8E1
:10559C00002801D003F0C2F93378002BFCD0604B0B
:1055AC001B78692B00D0AAE060223B7893431A0049
:1055BC004023134323700023574AD6211370013321
:1055CC000193009417222800FDF7C6FF002801D094
:1055DC0003F0A4F9504B1B78002BFBD00023534F46
:1055EC0033700133019300975C22D6212800FEF71B
:1055FC0059F8002801D003F091F93378002BFCD036
:10560C0060233A78D6219A43134323700023424AED
:10561C00280013700133019300945C22FDF79CFF6A
:10562C00002801D003F07AF93B4B1B78002BFBD000
:10563C000023364E364C3E4D3370013301930095AA
:10564C005E22D6212000FEF72DF8002801D003F0B1
:10565C0065F93378002BFCD020230F212A7869447C
:10566C009A4313430B7000232B4D5E222B70013396
:10567C0000910193D6212000FDF76EFF002801D088
:10568C0003F04CF92B78002BFCD02A4C2A49200033
:10569C0006F056FB012202212848FDF77FFD01236D
:1056AC00274D20002B70FAF727FD210082B22548E8
:1056BC00FFF700FB002801D003F030F92B78012B09
:1056CC00FCD0002202211D48FDF768FD01221E4B73
:1056DC001A7002231D4A13701D4A137005B0F0BDD9
:1056EC00D0221C4B52001A801B4A1C4B1A60E3E65A
:1056FC006A2B00D000E76F223B785242FAE66A2B05
:10570C0000D058E73B78682250E7C0466902002079
:10571C00A0030020140200206A02002017020020BF
:10572C007903002019020020150200201802002025
:10573C00160200206B0200202CE400080004004834
:10574C00780300201005002032020020890400207C
:10575C008A0400208004002023DB793D7C04002097
:10576C00F0B5A94B85B01B78692B00D1F4E0A64BA2
:10577C001B786A2B7CD10023A44FA54DA54C3B7004
:10578C000133019300941322D6212800FDF78AFFE0
:10579C00002801D003F0C2F83B78002BFCD0082382
:1057AC000F2622786E449A431343337000239A4C8D
:1057BC0013222370013301930096D6212800FDF7A4
:1057CC00CBFE002801D003F0A9F82378002BFCD0E5
:1057DC000023924A3B700133009201931722D62189
:1057EC002800FDF75FFF002801D003F097F83B7805
:1057FC00002BFCD01322894BD6211B7828001A4091
:10580C0018235B421343337000232370013301933D
:10581C0000961722FDF7A0FE002801D003F07EF8B9
:10582C002378002BFCD000237D4A3B70013300927F
:10583C0001931022D6212800FDF734FF002801D057
:10584C0003F06CF83B78002BFCD060233370002302
:10585C0023700133019300961022D6212800FDF706
:10586C007BFE002801D003F059F82378002BFCD0E4
:10587C00654B1B78692B51D10023644F644D674CE9
:10588C003B700133019300941722D6212800FDF7B9
:10589C0009FF002801D003F041F83B78002BFCD025
:1058AC001C220F262378524213436E44337000237C
:1058BC00594C33322370013301930096D6212800C2
:1058CC00FDF74AFE002801D003F028F82378002BBE
:1058DC00FCD00023524A3B700133009201931022FA
:1058EC00D6212800FDF7DEFE002801D003F016F8C3
:1058FC003B78002BFCD063233370002323700133DF
:10590C00019300961022D6212800FDF725FE0028D1
:10591C0001D003F003F82378002BFCD001220221E4
:10592C004048FDF73BFC01233F4C31223F494048A6
:10593C002370FFF7BFF9002801D002F0EFFF2378A6
:10594C00012BFCD0002202213648FDF727FC3948F8
:10595C00FDF70CFA05B0F0BD00232C4F2C4D364C46
:10596C003B700133019300941822D6212800FDF7D7
:10597C0099FE002801D002F0D1FF3B78002BFCD01F
:10598C0038230F2622786E449A4313433370002336
:10599C00214C18222370013301930096D621280044
:1059AC00FDF7DAFD002801D002F0B8FF2378002BB8
:1059BC00FCD00023174A3B70013300920193132251
:1059CC00D6212800FDF76EFE002801D002F0A6FFBC
:1059DC003B78002BFCD078220E4B52421B78D62100
:1059EC0013433370002323700133019300968B32E1
:1059FC002800FDF7B1FD002801D002F08FFF2378BD
:105A0C00002BFCD0B3E6C0467903002069020020CD
:105A1C00A00300201B0200206A0200201C020020B0
:105A2C001A0200200004004878030020A7E40008B4
:105A3C0010050020020300001D020020F0B5AA4B47
:105A4C0085B01B78692B00D1F6E0A74B1B786A2B2D
:105A5C007CD10023A54FA64DA64C3B70013301937E
:105A6C0000941322D6212800FDF71CFE002801D03B
:105A7C0002F054FF3B78002BFCD008230F26227831
:105A8C006E449A431343337000239B4C13222370B0
:105A9C00013301930096D6212800FDF75DFD002807
:105AAC0001D002F03BFF2378002BFCD00023934A5B
:105ABC003B700133009201931722D6212800FDF789
:105ACC00F1FD002801D002F029FF3B78002BFCD01F
